:02000002B0004C
:1040000000400B004E960B00000006000C0005025D
:0840100004015014000000003F
:04401800508F0B00BA
:1040200081F0004102E000BF83F0004330B54FEA69
:1040300041044FEA430594EA050F08BF90EA020FD6
:104040001FBF54EA000C55EA020C7FEA645C7FEA69
:10405000655C00F0E2804FEA5454D4EB5555B8BF8C
:104060006D420CDD2C4480EA020281EA030382EAFD
:10407000000083EA010180EA020281EA0303362D8F
:1040800088BF30BD11F0004F4FEA01314FF4801C62
:104090004CEA113102D0404261EB410113F0004F74
:1040A0004FEA03334CEA133302D0524263EB43032B
:1040B00094EA050F00F0A780A4F10104D5F1200EC9
:1040C0000DDB02FA0EFC22FA05F2801841F1000124
:1040D00003FA0EF2801843FA05F359410EE0A5F1F8
:1040E00020050EF1200E012A03FA0EFC28BF4CF029
:1040F000020C43FA05F3C01851EBE37101F00045DF
:1041000007D54FF0000EDCF1000C7EEB00006EEBEB
:104110000101B1F5801F1BD3B1F5001F0CD3490875
:104120005FEA30004FEA3C0C04F101044FEA4452CC
:1041300012F5800F80F09A80BCF1004F08BF5FEA53
:10414000500C50F1000041EB045141EA050130BD33
:104150005FEA4C0C404141EB0101013C28BFB1F545
:10416000801FE9D291F0000F04BF01460020B1FA90
:1041700081F308BF2033A3F10B03B3F120020CDA63
:104180000C3208DD02F1140CC2F10C0201FA0CF041
:1041900021FA02F10CE002F11402D8BFC2F1200CA6
:1041A00001FA02F120FA0CFCDCBF41EA0C0190405C
:1041B000E41AA2BF01EB0451294330BD6FEA0404A5
:1041C0001F3C1CDA0C340EDC04F11404C4F1200290
:1041D00020FA04F001FA02F340EA030021FA04F3A2
:1041E00045EA030130BDC4F10C04C4F1200220FAF9
:1041F00002F001FA04F340EA0300294630BD21FA37
:1042000004F0294630BD94F0000F83F4801306BFFC
:1042100081F480110134013D4EE77FEA645C18BFF0
:104220007FEA655C29D094EA050F08BF90EA020F87
:1042300005D054EA000C04BF1946104630BD91EA7F
:10424000030F1EBF0021002030BD5FEA545C05D182
:104250004000494128BF41F0004130BD14F58004C1
:104260003CBF01F5801130BD01F0004545F0FE4135
:1042700041F470014FF0000030BD7FEA645C1ABF6A
:10428000194610467FEA655C1CBF0B46024650EAA1
:10429000013406BF52EA033591EA030F41F40021CD
:1042A00030BD00BF90F0000F04BF0021704730B553
:1042B0004FF4806404F132044FF000054FF0000128
:1042C00050E700BF90F0000F04BF0021704730B5E9
:1042D0004FF4806404F1320410F0004548BF4042BE
:1042E0004FF000013EE700BF42004FEAE2014FEA13
:1042F00031014FEA02701FBF12F07F4393F07F4FEE
:1043000081F06051704732F07F4208BF704793F0F0
:104310007F4F04BF41F40021704730B54FF4607403
:1043200001F0004521F000411CE700BF50EA010206
:1043300008BF704730B54FF000050AE050EA0102AF
:1043400008BF704730B511F0004502D5404261EB1F
:1043500041014FF4806404F132045FEA915C3FF460
:10436000D8AE4FF003025FEADC0C18BF03325FEAFD
:10437000DC0C18BF033202EBDC02C2F1200300FAAE
:1043800003FC20FA02F001FA03FE40EA0E0021FAD3
:1043900002F11444BDE600BF70B54FF0FF0C4CF4C1
:1043A000E06C1CEA11541DBF1CEA135594EA0C0F73
:1043B00095EA0C0F00F0DEF82C4481EA030621EAAE
:1043C0004C5123EA4C5350EA013518BF52EA0335E9
:1043D00041F4801143F4801338D0A0FB02CE4FF09B
:1043E0000005E1FB02E506F00042E0FB03E54FF0CB
:1043F0000006E1FB03569CF0000F18BF4EF0010EC3
:10440000A4F1FF04B6F5007F64F5407404D25FEABE
:104410004E0E6D4146EB060642EAC62141EA555171
:104420004FEAC52040EA5E504FEACE2EB4F1FD0CB3
:1044300088BFBCF5E06F1ED8BEF1004F08BF5FEA31
:10444000500E50F1000041EB045170BD06F00046E3
:1044500046EA010140EA020081EA0301B4EB5C0490
:10446000C2BFD4EB0C0541EA045170BD41F4801188
:104470004FF0000E013C00F3AB8014F1360FDEBFAD
:10448000002001F0004170BDC4F10004203C35DA89
:104490000C341BDC04F11404C4F1200500FA05F30C
:1044A00020FA04F001FA05F240EA020001F00042AD
:1044B00021F0004110EBD37021FA04F642EB060123
:1044C0005EEA430E08BF20EAD37070BDC4F10C044D
:1044D000C4F1200500FA04F320FA05F001FA04F211
:1044E00040EA020001F0004110EBD37041F10001FD
:1044F0005EEA430E08BF20EAD37070BDC4F1200508
:1045000000FA05F24EEA020E20FA04F301FA05F26F
:1045100043EA020321FA04F001F0004121FA04F217
:1045200020EA020000EBD3705EEA430E08BF20EAE7
:10453000D37070BD94F0000F0FD101F00046400021
:1045400041EB010111F4801F08BF013CF7D041EAA3
:10455000060195F0000F18BF704703F000465200A7
:1045600043EB030313F4801F08BF013DF7D043EA78
:104570000603704794EA0C0F0CEA135518BF95EA2E
:104580000C0F0CD050EA410618BF52EA4306D1D1B5
:1045900081EA030101F000414FF0000070BD50EAD4
:1045A000410606BF1046194652EA430619D094EA5E
:1045B0000C0F02D150EA013613D195EA0C0F05D148
:1045C00052EA03361CBF104619460AD181EA03019C
:1045D00001F0004141F0FE4141F470014FF0000054
:1045E00070BD41F0FE4141F4780170BD70B54FF0EF
:1045F000FF0C4CF4E06C1CEA11541DBF1CEA13556F
:1046000094EA0C0F95EA0C0F00F0A7F8A4EB050450
:1046100081EA030E52EA03354FEA013100F0888047
:104620004FEA03334FF0805545EA131343EA126310
:104630004FEA022245EA111545EA10654FEA0026C5
:104640000EF000419D4208BF964244F1FD0404F57E
:10465000407402D25B084FEA3202B61A65EB0305DA
:104660005B084FEA32024FF480104FF4002CB6EB97
:10467000020E75EB030E22BFB61A754640EA0C0017
:104680005B084FEA3202B6EB020E75EB030E22BF57
:10469000B61A754640EA5C005B084FEA3202B6EB98
:1046A000020E75EB030E22BFB61A754640EA9C0057
:1046B0005B084FEA3202B6EB020E75EB030E22BF27
:1046C000B61A754640EADC0055EA060E18D04FEAE5
:1046D000051545EA16754FEA06164FEAC30343EA85
:1046E00052734FEAC2025FEA1C1CC0D111F4801F52
:1046F0000BD141EA00014FF000004FF0004CB6E74B
:1047000011F4801F04BF01430020B4F1FD0C88BFE9
:10471000BCF5E06F3FF6AFAEB5EB030C04BFB6EBF4
:10472000020C5FEA500C50F1000041EB045170BDE7
:104730000EF0004E4EEA113114EB5C04C2BFD4EB14
:104740000C0541EA045170BD41F480114FF0000E98
:10475000013C90E645EA060E8DE60CEA135594EA14
:104760000C0F08BF95EA0C0F3FF43BAF94EA0C0F17
:104770000AD150EA01347FF434AF95EA0C0F7FF48C
:1047800025AF104619462CE795EA0C0F06D152EAE0
:1047900003353FF4FDAE1046194622E750EA4106C4
:1047A00018BF52EA43067FF4C5AE50EA41047FF4D5
:1047B0000DAF52EA43057FF4EBAE12E74FF0FF3C3A
:1047C00006E000BF4FF0010C02E000BF4FF0010C0B
:1047D0004DF804CD4FEA410C7FEA6C5C4FEA430C84
:1047E00018BF7FEA6C5C1BD001B050EA410C0CBFD3
:1047F00052EA430C91EA030F02BF90EA020F002035
:10480000704710F1000F91EA030F58BF994208BF9B
:1048100090422CBFD8176FEAE37040F00100704758
:104820004FEA410C7FEA6C5C02D150EA013C07D1AF
:104830004FEA430C7FEA6C5CD6D152EA033CD3D0FA
:104840005DF8040B704700BF8446104662468C46F4
:104850001946634600E000BF01B5FFF7B7FF002827
:1048600048BF10F1000F01BD4DF808EDFFF7F4FF50
:104870000CBF012000205DF808FB00BF4DF808EDDB
:10488000FFF7EAFF34BF012000205DF808FB00BFFE
:104890004DF808EDFFF7E0FF94BF012000205DF820
:1048A00008FB00BF4DF808EDFFF7CEFF94BF0120D5
:1048B00000205DF808FB00BF4DF808EDFFF7C4FFCE
:1048C00034BF012000205DF808FB00BF4FEA410C17
:1048D0007FEA6C5C02D150EA013C0AD14FEA430CFA
:1048E0007FEA6C5C02D152EA033C02D14FF0000037
:1048F00070474FF0010070474FEA4102B2F1E043C8
:1049000024BFB3F5001CDCF1FE5C0DD901F0004CB6
:104910004FEAC0024CEA5070B2F1004F40EB830006
:1049200008BF20F00100704711F0804F21D113F132
:104930003872BCBF01F00040704741F480114FEA6B
:104940005252C2F11802C2F1200C10FA0CF320FAF4
:1049500002F018BF40F001004FEAC1234FEAD32311
:1049600003FA0CFC40EA0C0023FA02F34FEA43037B
:10497000CCE77FEA625307D150EA01331EBF4FF004
:10498000FE4040F44000704701F0004040F0FE401F
:1049900040F40000704700BF10F8012B11F8013BF4
:1049A000012A28BF9A42F7D0D01A7047034613F85D
:1049B000012B002AFBD1181A0138704709480A490F
:1049C000884208B505D0094A824202D0121A04F082
:1049D0006BF90748074A0021121A04F073F90148DD
:1049E00008BD00BF70E40320AC950B00E4E4032095
:1049F000E4E40320F0E7032070B5074E074C01F014
:104A000013FDA41BA4080025AC4200D170BD56F8CC
:104A1000043B98470135F7E750950B0088950B004C
:104A200000F02EB808B500F05DF8BDE8084001F0D0
:104A3000B3BC00F091BF00F08FBF00F095BF0078CD
:104A4000B0FA80F0400970470123037070470000FE
:104A500008B5006804F018F9014B1860C82008BDBB
:104A600070E4032013B5044608460191FFF79EFF4A
:104A700001990246204602B0BDE8104002F040BE57
:104A800013B5124800F06CFA114800F069FA0024DE
:104A90000321062002F092FE22460123CDE90044C4
:104AA0000C490D4800F048FF0121052002F086FE68
:104AB0000121052002F093FE0849094823460222FD
:104AC00002B0BDE8104000F00FBF00BFE8E40320D3
:104AD000FCE40320914B0B00648F0B0070E4032077
:104AE000D38F0B0040F6B83001F02ABC38B504680B
:104AF00005467CB16368013B63605BB9236820466F
:104B00009B689847A368013BA3601BB923682046B4
:104B1000DB689847284638BD00B58BB006A800F082
:104B2000FBFE06A801F090FB039006A801F0EEFA48
:104B300003990A2206A801F074FB0F4B069A1B7812
:104B40000E498DF8003004A83C2301F0F1FD05A8C2
:104B5000FFF7CCFF06A801F0D9FA0021052002F0EA
:104B60003EFE074B186801F0EBFB012105200BB05E
:104B70005DF804EB02F033BEE4E40320708F0B0019
:104B800070E4032008B5FFF7C7FFC82008BD000088
:104B900070B5ADF52A7D0EAD40F26E22002128469B
:104BA00004F090F87D4B0993002440F26D2309A88E
:104BB000CDE90C348DF828400B9502F010FD7849B2
:104BC000784E09A8FFF74EFF0722774902F0A8FDAB
:104BD000764909A8FFF746FF02F0F5FC304600F0E1
:104BE000ADFBB4EE400AF1EE10FA80F1B98010EEA0
:104BF000100AFFF779FB41EC100B09A802F00EFD3B
:104C000001340A2CEAD109A802F0BEFC6849694EB9
:104C100009A8FFF727FF02F0D6FC0024304600F079
:104C20008DFBB4EE400AF1EE10FA80F19F8010EE99
:104C3000100AFFF759FB41EC100B09A802F0EEFC3B
:104C400001340A2CEAD109A802F09EFC5A49554EBB
:104C500009A8FFF707FF02F0B6FC0024304600F079
:104C60009BFBB4EE400AF1EE10FA80F1858010EE65
:104C7000100AFFF739FB41EC100B09A802F0CEFC3B
:104C800001340A2CEAD109A802F07EFC4B49494EB6
:104C900009A8FFF7E7FE02F096FC0024304600F07A
:104CA0007BFBB4EE400AF1EE10FA6BD610EE100A60
:104CB000FFF71AFB41EC100B09A802F0AFFC01341E
:104CC0000A2CEBD109A802F05FFC3D4909A8FFF7C7
:104CD000C9FE02F078FC0F2002F09AFD014609A8F7
:104CE00002F08AFC013CF6D109A802F04DFC3549DE
:104CF000354E09A8FFF7B6FE02F065FC01213046EB
:104D000000F0CAF8B4EE400AF1EE10FA40D610EE08
:104D1000100AFFF7E9FA41EC100B09A802F07EFC3B
:104D200001340A2CEAD109A802F02EFC09A802F0ED
:104D300034FC294605A801F034FA244B059A1B7867
:104D400023498DF8003003A83C2301F0F1FC04A8AE
:104D5000FFF7CCFE05A801F0D9F90DF52A7D70BD4D
:104D60004FF47A70013C01F0EBFA49E74FF47A70A6
:104D7000013C01F0E5FA63E74FF47A70013C01F081
:104D8000DFFA7DE74FF47A70013C01F0D9FA96E73B
:104D90004FF47A70013C01F0D3FAC1E798920B000E
:104DA000778F0B00E8E403207E8F0B00868F0B00CB
:104DB0008E8F0B00FCE40320968F0B009D8F0B0061
:104DC000A48F0B00AD8F0B0010E50320E4E403205B
:104DD000B48F0B00114B1248002210B508211A7035
:104DE0000623162200F0B5F80E4C0F4806230B22BE
:104DF000072100F0AEF80E210C4800F025F80C4A0F
:104E00000C49204601F09DFB0B4B0C4A18700C49D5
:104E1000204601F096FB0B4B187010BDE4E4032014
:104E2000E8E4032017650B00FCE4032010E50320F1
:104E3000C68F0B00854B0B001CE50320CC8F0B00AD
:104E4000514A0B001DE503204FF08B424260024A9D
:104E500082600160704700BF0000A04070B5054649
:104E60000C46012001F06CFA74B1642600242888F5
:104E700002F0CEFC0444012001F062FA013EF6D1BA
:104E8000642094FBF0F070BD2888BDE8704002F00B
:104E9000BFBC00000000000010B50446FFF7DEFFB5
:104EA00007EE900A94ED027AF8EEE77A67EE877AD9
:104EB00094ED017AC7EE877A17EE900AFFF714FA9D
:104EC0009FED070B41EC110B02F052FE51EC100B61
:104ED000FFF712FD00EE100A10BD00BFAFF3008017
:104EE000000000000000244010B503682F2B04468A
:104EF00004D9074A07490A2000F052FC23681F2BF7
:104F000083BF03F01F03044823604FF0A04010BD8F
:104F100031550B00D98F0B000003005007B50190ED
:104F200001A8FFF7E1FF019A01239340C0F808357B
:104F300003B05DF804FB07B5019001A8FFF7D4FFAB
:104F4000019BD0F81005D84000F0010003B05DF8D7
:104F500004FB10B5037201238171C271037410BD8B
:104F60002DE9F04104461C4F80791C4E002102F0CF
:104F700025FCA5793B78BFF35B8F13F0010F09D1B6
:104F80003846FFF75CFD28B100F082FA3060384601
:104F9000FFF75AFD33682D0113F805803B78BFF306
:104FA0005B8FDB074FEA481809D40B48FFF747FD32
:104FB00028B100F06DFA30600748FFF745FD33680F
:104FC0001D44687800F01F0040EA0800FFF7A6FFC4
:104FD0000023E360BDE8F08120E5032024E5032001
:104FE0002DE9F04F044685B000F0AAFAE368834249
:104FF00084BF0023E360237C2BB9E368C01AB0F5BB
:10500000FA6FC0F060810025257400F099FAB04E67
:1050100025602571E060A7793378AE4DBFF35B8FD3
:1050200013F0010F09D13046FFF709FD28B100F058
:105030002FFA28603046FFF707FD2B683F0113F871
:1050400007803378BFF35B8FD9074FEA481809D43C
:105050009F48FFF7F4FC28B100F01AFA28609C483A
:10506000FFF7F2FC2B683B44587800F01F0040EA41
:105070000800FFF753FFFA2001F062F9A07901213F
:1050800002F09CFBA7793378BFF35B8FDA0709D472
:105090008F48FFF7D4FC28B100F0FAF928608C485B
:1050A000FFF7D2FC2B683F01DB5D4FEA43183378F2
:1050B000BFF35B8FDB0709D48548FFF7C0FC28B13D
:1050C00000F0E6F928608248FFF7BEFC2B683B44FD
:1050D00003A85B7803F01F0343EA08030393FFF779
:1050E00003FF039A01239340C0F80C35142001F00C
:1050F00027F901F097FDA7793378BFF35B8FD807C5
:1051000009D47348FFF79BFC28B100F0C1F928606F
:105110006F48FFF799FC2B683F0113F8078033783D
:10512000BFF35B8FD9074FEA481809D46848FFF7E7
:1051300086FC28B100F0ACF928606548FFF784FCD4
:105140002B683B440027587800F01F0040EA080015
:10515000FFF7E4FE282000F0EBF9A079DFF870817A
:10516000002102F02BFB0123BA4600934FF0000907
:1051700094F806B03378BFF35B8FDA0709D4404662
:10518000FFF75DFC28B100F083F928604046FFF787
:105190005BFC2B684FEA0B1B13F80B305B01019390
:1051A0003378BFF35B8FDB0709D44046FFF747FC3A
:1051B00028B100F06DF928604046FFF745FC2B68E8
:1051C0005B4493F801B0019B0BF01F0B4BEA030B00
:1051D0005846FFF7B0FE5846FFF7ADFE009B8342EE
:1051E00009D109F101095FFA89F9012000F0A0F95C
:1051F000B9F1FF0FBCD194F806B03378BFF35B8FE1
:10520000D80709D44046FFF71AFC28B100F040F94E
:1052100028604046FFF718FC2B684FEA0B1B13F879
:105220000B305B0100933378BFF35B8FD90709D450
:105230004046FFF704FC28B100F02AF928604046F8
:10524000FFF702FC2B685B4493F801B0009B0BF066
:105250001F0B4BEA030B5846FFF76DFE5846FFF74E
:105260006AFEB9F1FF0FC3B2009318D0032F11D912
:10527000FA070FD44FEADA020AF1010AA35C5B00D5
:10528000DBB2A354217A49453CBF43F00103A35448
:105290005FFA8AFA0137FFB2552F7FF467AF01F04A
:1052A000C3FCBAF1270F10D9637820781844A3788B
:1052B0001844E37818442379C0B2C31A58425841BD
:1052C00005B0BDE8F08F0120FAE70020F8E700BF45
:1052D00020E5032024E5032010B50446FFF780FEF7
:1052E00020B3E3790B2B1BD0153B012B1ED8A378E1
:1052F000DFED106A03F07F0207EE102AE27807EE76
:10530000902AB8EEC77AF8EEE77A1B06E7EE267A1F
:10531000B2EE047A87EE870A07D5B1EE400A04E0C0
:10532000A37800EE103AB8EE400A10BD9FED020AD5
:10533000FBE700BF000080430000C07FFFF7CCBF49
:1053400010B50446FFF74CFEF0B1E3790B2B15D0F6
:10535000153B012B18D82378DFED0D6A07EE103AC4
:10536000637807EE903AB8EE477AF8EEE77AE7EE20
:10537000267AB2EE047A87EE870A10BD237800EE13
:10538000103AB8EE400AF8E79FED020AF5E700BFD1
:10539000000080430000C07FFFF7D2BF014801F04A
:1053A000ADBF00BF28E5032038B584690A4B036010
:1053B00005467CB16368013B63605BB923682046A6
:1053C0009B689847A368013BA3601BB923682046EC
:1053D000DB689847284638BDC8910B0010B50446D5
:1053E000FFF7E2FF20461C21FFF727FB204610BDF8
:1053F00008B5074B074800221A7001F07FFF0648E6
:1054000001F07CFFBDE80840044800F0DDBD00BFAE
:10541000C8E50320ACE5032044E5032060E5032054
:10542000014801F06BBF00BFCCE5032010B58368D5
:10543000044613B1032201469847204610BD0000E0
:1054400008B5054801F05AFF044801F057FFBDE8D0
:105450000840034800F0B8BD50E60320E8E503200B
:1054600004E60320014800F0AFBD00BF6CE6032056
:1054700008B5024B1B689B68019308BD68020300D6
:1054800008B5024B1B68DB68019308BD6802030086
:1054900008B5024B1B681B68019308BD2C02030072
:1054A00008B5024B1B685B68019308BD2C02030022
:1054B00008B5024B1B689B68019308BD2C020300D2
:1054C00008B5024B1B68DB68019308BD2C02030082
:1054D00008B5024B1B681B69019308BD2C02030031
:1054E00008B5024B1B681B6A019308BD2C02030020
:1054F00008B5024B1B685B6A019308BD2C020300D0
:1055000008B5024B1B681B6B019308BD2C020300FE
:1055100008B5024B1B685B69019308BD6C02030070
:1055200008B5024B1B685B68019308BD18020300B5
:1055300008B5024B1B68DB68019308BD1802030025
:1055400008B5024B1B685B69019308BD1802030094
:1055500008B5024B1B685B6C019308BD4802030051
:1055600008B5024B1B685B69019308BD6402030028
:1055700008B5024B1B681B6A019308BD6402030057
:1055800008B5024B1B685B6A019308BD6402030007
:1055900008B5024B1B689B6A019308BD64020300B7
:1055A00008B5024B1B68DB68019308BD3C02030091
:1055B00008B5024B1B681B69019308BD3C02030040
:1055C00008B5024B1B685B69019308BD3C020300F0
:1055D00008B5024B1B689B69019308BD3C020300A0
:1055E00008B5024B1B68DB69019308BD3C02030050
:1055F00008B5024B1B681B6A019308BD3C020300FF
:1056000008B5024B1B689B6A019308BD3C0203006E
:1056100008B5024B1B681B6C019308BD3C020300DC
:1056200008B5024B1B681B6A019308BD28020300E2
:1056300008B5024B1B685B6A019308BD2802030092
:1056400008B5024B1B689B6A019308BD2802030042
:1056500008B5024B1B68DB6A019308BD28020300F2
:1056600008B5024B1B681B6B019308BD28020300A1
:1056700008B5024B1B685B6B019308BD2802030051
:1056800008B5024B1B681B6C019308BD2802030080
:1056900008B5024B1B685B68019308BD3802030024
:1056A00008B5024B1B689B69019308BD38020300D3
:1056B00008B5024B1B68DB69019308BD3802030083
:1056C00008B5024B1B681B6A019308BD3802030032
:1056D00008B5024B1B689B6A019308BD38020300A2
:1056E00008B5024B1B68DB6A019308BD3802030052
:1056F00008B5024B1B681B6B019308BD3802030001
:1057000008B5024B1B685B6B019308BD38020300B0
:1057100008B5024B1B689B6B019308BD3802030060
:1057200008B5024B1B68DB69019308BD300203001A
:1057300008B5024B1B681B6A019308BD30020300C9
:1057400008B5024B1B681B68019308BD4C0203009F
:1057500008B5024B1B681B69019308BD4C0203008E
:1057600008B5024B1B685B69019308BD4C0203003E
:1057700008B5024B1B689B69019308BD4C020300EE
:1057800008B5024B1B68DB69019308BD4C0203009E
:1057900008B5024B1B681B6A019308BD4C0203004D
:1057A00008B5024B1B685B6B019308BD60020300E8
:1057B00008B5024B1B681B6D019308BD6002030016
:1057C00008B5024B1B685B68019308BD200203000B
:1057D00008B5024B1B685B69019308BD20020300FA
:1057E00008B5024B1B68DB6C019308BD2002030067
:1057F00008B5024B1B685B6D019308BD20020300D6
:1058000008B5034B1B68D3F88830019308BD00002E
:105810002002030008B5034B1B68D3F894300193B2
:1058200008BD00002002030008B5024B1B685B683E
:10583000019308BD4002030008B5024B1B689B683A
:10584000019308BD4002030008B5024B1B68DB68EA
:10585000019308BD4002030008B5024B1B681B6999
:10586000019308BD4002030008B5024B1B685B6949
:10587000019308BD4002030008B5024B1B689B69F9
:10588000019308BD4002030008B5024B1B68DB69A9
:10589000019308BD4002030008B5024B1B681B6A58
:1058A000019308BD4002030008B5024B1B681B6B47
:1058B000019308BD4002030008B5024B1B685B6BF7
:1058C000019308BD4002030008B5024B1B681B6C26
:1058D000019308BD4002030008B5024B1B685B6CD6
:1058E000019308BD4002030008B5024B1B681B680A
:1058F000019308BD4402030008B5024B1B685B68B6
:10590000019308BD4402030008B5024B1B685B69A4
:10591000019308BD4402030008B5024B1B68DB6914
:10592000019308BD4402030008B5024B1B681B6AC3
:10593000019308BD4402030008B5024B1B685B6A73
:10594000019308BD4402030008B5024B1B68DB6BE2
:10595000019308BD4402030008B5024B1B681B6895
:10596000019308BD1C02030008B5024B1B685B686D
:10597000019308BD1C02030008B5024B1B689B681D
:10598000019308BD1C02030008B5024B1B685B6A4B
:10599000019308BD1C02030008B5024B1B68DB6ABB
:1059A000019308BD1C02030008B5024B1B681B6B6A
:1059B000019308BD1C02030008B5024B1B68DB6B9A
:1059C000019308BD1C02030008B5024B1B681B6C49
:1059D000019308BD1C02030008B5024B1B685B6CF9
:1059E000019308BD1C020300002240681146FFF726
:1059F00053BF002240681146FFF75EBF4068002297
:105A0000FFF752BF4068002281F00101FFF73CBF61
:105A1000002340681A461946FFF72EBF002340684E
:105A20001A461946FFF720BF002240681146FFF7CB
:105A300013BF002240681146FFF7FEBE40680022F7
:105A40000221FFF701BF002340681A46FFF7ECBEB2
:105A5000024B03225A60024A1A607047B8E60320DC
:105A600008900B0010B5044608462170FFF758FE59
:105A700000236360204610BD054B02221A60054BCF
:105A8000054A9A600020C3E90000FFF799BE00BFF5
:105A9000CCE60320C0E603200000FFFF10B504465B
:105AA000FEF784FF013823182046834206D9027886
:105AB000197800F8011B03F80129F6E710BD70B54D
:105AC0000C46911E22291DD8254630B92344302288
:105AD0009D4210D205F8012BFAE7B0FBF2F602FB6B
:105AE0001600C1B2092894BF30315731C9B205F848
:105AF000011B3046E9E7002320462B70FFF7CEFF5D
:105B0000204670BD0020FCE738B5031E0C46154644
:105B10000EDAB3F1004F4FF02D0214BF5842184671
:105B200001230A702A461944FFF7C9FF204638BDF1
:105B30000123F9E710B40468246BA4465DF8044B14
:105B4000604703689B6C1847808E7047028FC08E39
:105B5000101A7047F0B5036889B09F6A0C4B029326
:105B600000F1200604460FCE03AD0FC533682B703D
:105B7000A38EE28EE16B0093204602ABB847236808
:105B80000546DB6920469847284609B0F0BD00BFAE
:105B9000F8900B0007B503688DF80710DB68012249
:105BA0000DF10701984703B05DF804FB10B50368D9
:105BB0001B690446984728B1E38EE26B591CE186C5
:105BC000D05C10BD4FF0FF30FBE710B503681B69D8
:105BD0000446984718B1E38EE26BD05C10BD4FF0DD
:105BE000FF30FBE7704710B403460846DC6BD98EE4
:105BF0001A8F0368521ADB6821445DF8044B18477A
:105C0000A0F11000FFF7EFBF70B503688CB05B6ABE
:105C100004460E461546984701231C22002105A87C
:105C2000029303F04FF840F61C233046ADF81430D1
:105C3000FFF7AEFC1122ADF8160002210A20FFF793
:105C400067FD0028606125DB0422009202AB40F66C
:105C5000FF71FFF725FDE8B995B10390ADF810008D
:105C600003A9E8B2FFF754FCA0B9062300936069CA
:105C700003AB41F20B0240F6FF71FFF711FD48B98B
:105C800060691C2205A9FFF703FD18B965640120AE
:105C90000CB070BD236820465B6A98470020F7E788
:105CA00010B504464069002801DBFFF701FD4FF005
:105CB000FF3363610023E386238710BD70B505467B
:105CC000C06BEE8E68B12B6C9C1B944228BF1446AF
:105CD0002246304402F0E8FFEB8E2344EB86204658
:105CE00070BD0446F1E7D0B503681B6904460F4652
:105CF0001646984790B1236820461B699847E38E63
:105D0000E16B8642A8BF064619443246384602F087
:105D1000CBFFE38E3344E3863046D0BD4FF0FF36F1
:105D2000FAE730B587B0044601AD684600F0EAFEF8
:105D30000FCD04340FC42B68237007B030BD0000B2
:105D4000F0B59646026889B0976A0A4A02921C1D0D
:105D50008C4606460FCC03AD0FC523682B70BDF8EB
:105D600038300093724602AB61463046B84709B0FE
:105D7000F0BD00BFF8900B0070B50446054B44F829
:105D8000043B01F1200506460FCD0FC42B6823709C
:105D9000304670BDF8900B00F0B54378022B8DB003
:105DA00005460C46174604D1011D2046FFF7B9FFF2
:105DB00022E00A2B25D11122002101A802F082FF46
:105DC000AB6803B305F1080301AE05F1180C1868C0
:105DD0005968324603C2083363451646F7D1062395
:105DE00001A906A807AE8DF8143000F055FE0FCEBD
:105DF00004340FC4336823701FB16888FFF7C0FBF9
:105E000038800DB0F0BDEB68002BDBD14FF6FF7092
:105E10002E69FFF7ADFB8642D4D105F11401C4E72A
:105E20002DE9F04117468EB00022064601AB084628
:105E300011460192FFF724FB041E20DB019B2BB3CC
:105E40005B691BB302A800F019FE019B0022586990
:105E500002A9FFF7A1FF02A800F030FEB0B133683D
:105E600003ADD3F838800B4B08930FCD09AC0FC4AA
:105E70002B6823703A4608A93046C047044601986B
:105E8000FFF7F6FA20460EB0BDE8F0814FF0FF3480
:105E9000F5E700BFF8900B002DE9F047D0F814901B
:105EA000B9F1000F90B005460E4690461C463CDB0B
:105EB00000293AD04FF01C0A09AF5246002138465B
:105EC00002F000FFCDF80CA0DCB14FF47A73B4FB04
:105ED000F3F203FB124400215C431023CDE90421BB
:105EE0000791009341F206026B4440F6FF71484669
:105EF0000694FFF7D5FB044620B1204610B0BDE85C
:105F0000F087082403ABCDE9007368692346424655
:105F10003146FFF7E5FB041EEFDB05F1340205F126
:105F20001C013846FFF738FFE7E74FF0FF34E4E79E
:105F300038B5054614462B7D062B084610D140F691
:105F40001C231380FFF724FB08342B1D24F8060CB8
:105F5000143553F8042B44F8042BAB42F9D138BD67
:105F6000042BFCD14FF404731380FFF711FB608006
:105F70006868FFF7FDFA6060F1E72DE9F0438BB048
:105F800003AF4FF01C09984604460D461646002103
:105F90004A46384602F096FEBDF848103A4640465A
:105FA000FFF7C6FF9DF80D3053B1CDE90079606968
:105FB000002332462946FFF7A3FB0BB0BDE8F08370
:105FC0004FF0FF30F9E7000038B500254FF47A7341
:105FD000C0E901530B4B03F108026C3303614FF02E
:105FE000FF330446026043611C3000F047FD4FF46C
:105FF0000073C4E91035E5862587E56384F84850C9
:10600000204638BD3C900B0010B590F8483004464F
:1060100023B1C06B10B10121FEF70FFD0023E36334
:1060200084F848302364E386238710BD70B50446A6
:1060300016460D46FFF7E8FF0023E66323642EB102
:106040002564206C003818BF012070BD002DF8D0E9
:106050002846FEF7F0FC0123E06384F8483000286E
:10606000EFD0EDE7F8B51746C26B05460C461AB9F6
:10607000016C09B1FFF7DAFF04340FCC05F12006FB
:106080000FC6236833700023286CAF86EB862B87FE
:10609000F8BD37B5C26B04460B462AB9016C19B17D
:1060A0000193FFF7C3FF019BE16B0022E286228789
:1060B00041B1226C32B12068056B2046A847002808
:1060C000C8BF208723681B69204603B0BDE8304065
:1060D0001847000010B5074B03F108026C33044663
:1060E00002600361FFF7DCFD2046FFF78DFF2046CD
:1060F00010BD00BF3C900B0010B50446FFF7EAFF4F
:1061000020464C21FEF799FC204610BD10B50446F0
:106110000068FFF729FC204610BD10B50446006852
:1061200008B1FFF721FC0023C4E90133236010BD4F
:1061300038B504460D4600680131FFF71DFC10B16B
:10614000C4E90005012038BD10B50368044623B139
:1061500043688B4201D3012010BD2046FFF7E8FFC2
:106160000028F9D0A368002BF5D122681370F2E75C
:1061700037B50D46114601920446FFF7E5FF019A37
:1061800028B92046FFF7C9FF204603B030BDA26002
:106190002946206802F088FD2268A3680021D154B6
:1061A000F2E7002313B5C0E90033044683600373AC
:1061B00041B108460191FEF7F9FB019902462046DC
:1061C000FFF7D6FF204602B010BD884210B5044646
:1061D00005D00B682BB18A681946FFF7C9FF204626
:1061E00010BDFFF79AFFFAE710B500230446C0E997
:1061F000003383600373FFF7E8FF204610BD13B53B
:10620000044659B108460191FEF7D0FB01990246B8
:106210002046FFF7ADFF204602B010BDFFF77DFF1F
:10622000F9E710B504468AB00023C4E90033A3603F
:106230002373084601A9FFF767FC01A92046FFF771
:10624000DEFF20460AB010BD006808B102F020BD94
:10625000704713B50B460246D0E900016C4684E84E
:10626000030093E8030082E8030094E8030083E856
:10627000030002B010BD0000024800230360FFF7D6
:1062800067B900BFD0E60320F8B506460D468F1863
:106290000024BD420CD0336815F8011B9B683046C2
:1062A0009847031E01DB1C44F3E7002C08BF1C4683
:1062B0002046F8BD13B50446084659B10191FEF7D2
:1062C00075FB23680199DB680246204602B0BDE8F1
:1062D0001040184702B010BD03689B68184730B5DE
:1062E0008BB00023012A8DF8243098BF0A2209AC14
:1062F0000D46B1FBF2F101FB125303F0FF03092B32
:1063000094BF30333733DBB2AA4204F8013DEFD9F2
:106310002146FFF7CFFF0BB030BD0000014B024A12
:106320001A607047D4E60320B4900B00024B1A6841
:10633000024B1A60704700BF74E40320D8E60320C4
:106340000021FFF745BA0000014B00229A60704718
:10635000DCE60320014B1860704700BF7CE403209B
:1063600008B50B4B43B100F037FC03681B69984735
:10637000002801DDAFF30080064B43B101F07AFA4B
:1063800003681B699847002801DDAFF3008008BD52
:10639000000000000000000008B5FFF7E1FFFFF774
:1063A000CFF8014B186008BD40E703200548064AB6
:1063B000064908B5121A02F077FC054B054A1A6027
:1063C00008BD00BF00F4032004F4032020960B0056
:1063D00000F403201E1C279A07B5002300931A46D9
:1063E0006FF07701FFF716FA03B05DF804FB0000C9
:1063F00007B543880A2B08D0502B0BD1094B1B68DB
:106400004BB103B05DF804EB1847FFF7E5FF03B0AD
:106410005DF804FB002300931A466FF07701FFF745
:10642000F9F9F4E7F0E6032010B512480021FFF770
:10643000D3FA114B1A68114B9A42114B0CBF01222F
:1064400000221A7001D0FFF7B1FFFFF769F8044688
:1064500002F040FC0B4B13B12046AFF3008000214B
:106460000848FFF771FABDE8104007480021FFF720
:10647000C7B900BF55630B0000F403201E1C279A08
:10648000ECE6032000000000F1630B0070470020E1
:10649000704710B510210446FEF7CFFA204610BD14
:1064A00008B5FFF7F6FF08BD30B500224FF69C7423
:1064B000026084808D888C800C68858004600A600E
:1064C00030BD10B504460068FFF74EFA204610BDF7
:1064D00038B5C468F4B12378022B03D104F10C0061
:1064E000FFF7EFFF656835B12846FEF79FFF1021E3
:1064F0002846FEF7A2FAA56835B12846FEF796FFB2
:1065000010212846FEF799FA20461421BDE83840AC
:10651000FEF793BA38BD10B588B004466846FFF759
:1065200040FE694604A8FFF75FFE04A8A0470446A2
:1065300004A8FFF7EBFD6846FFF7E8FD204608B02A
:1065400010BD1FB50023CDE90201019210241A46A7
:1065500069461846ADF80230ADF80040FFF7CCF9B7
:1065600004B010BD0B6803604B68436013B15A68F8
:1065700001325A60704737B5044668460D46FFF74A
:10658000F1FF009B019A23606260002301A8019340
:106590000093FEF7ABFA35B1281DFEF7A7FA0821E4
:1065A0002846FEF74AFA204603B030BD826810B58F
:1065B0000AB901F0C5F9BDE81040C368184708B52D
:1065C000006800F11001FFF7F1FF08BD826810B507
:1065D0000AB901F0B5F9BDE81040C368184708B51D
:1065E000006800F11001FFF7F1FF08BD38B5002386
:1065F0000446036010200D46FEF71BFA28B1012364
:10660000C0E90133024B0360C5602060204638BDFD
:10661000DC900B0038B5002383608B6804460D4680
:106620002BB102229847EB68E360AB68A360204679
:1066300038BD0000F0B589B004686846FFF734FF44
:106640004FF00203D4E84F2F002A03D1C4E8413FA2
:106650000029F7D125D104F10C0569462846FFF73A
:1066600023FFBFF35B8F01236370002004F1080355
:10667000BFF35B8F53E8006F43E80002002AF9D1B3
:10668000BFF35B8F6EB1FFF7ABF878B129463046A8
:10669000FFF78CFF3046FEF7C9FE10213046FEF7AB
:1066A000CCF96846FFF70DFF09B0F0BD314602A8EE
:1066B000FFF7B0FFE068B4F9105008B102F038FB02
:1066C00006901020ADF81C50FEF7B3F90546E8B16E
:1066D000002787601820FEF7ACF9044688B1014610
:1066E000876002A8FFF7B5FD049BA268A360059B25
:1066F000049206A9E268E36004F110000592FFF736
:10670000D3FE084BEB60084B2C60AB6006A8FFF78C
:10671000D8FE02A8FEF78AFE002229460348FFF7AA
:1067200067F8B7E7BF650B0041680B00D16C0B0041
:106730002DE9F04F8BB005469DF850A00F469046CE
:106740009946FFF7E1F807AE834638BB4FF62E7344
:10675000059005A93046ADF81830FFF7A5FE1420C6
:10676000FEF767F9044648B1022303700123C0E92C
:1067700001BB437031460C30FFF796FE2846214698
:1067800040F8044BFFF732FF3046FFF79AFE05A8AA
:10679000FFF797FE28460BB0BDE8F08F0C230024CE
:1067A0001420CDE908440793FEF743F9014618B1D8
:1067B000C0E901440470447004A80391FFF716FF78
:1067C0001E4B08930820FEF734F9044610B103A9C4
:1067D000FFF7C8FE00965FFA8AF34A4641463846FC
:1067E0000994FFF7A1F8B8B9039B5B7803F0FF02A7
:1067F00093B94FF69C7305A903A80592ADF818301C
:10680000FFF718FF05A8FFF75CFE05A80999FFF739
:10681000B2FE06A8FEF76AF903A905A8FFF7A2FED3
:10682000059B069A2B606A60002306A806930593D1
:10683000FEF75CF904A8FEF759F9ABE7BD680B0059
:10684000012AF8B5054603D10B6803600020F8BDA6
:10685000022A10D0032AF9D10468002CF6D004F1E2
:106860001000FFF72EFE2046FEF7E0FD182120461F
:10687000FEF7E3F8EAE718200E68FEF7DAF80446B8
:1068800050B13146FFF7C6FE3069B6F9147008B151
:1068900002F04EFA2061A7822C60D7E738B50023BA
:1068A00083608B6804460D462BB102229847EB6843
:1068B000E360AB68A360204638BD0000F0B589B046
:1068C00004460D4601A81146FFF755FEA4B124B2B7
:1068D0001DB1284602F02CFA054601A803A903952C
:1068E000ADF81040FFF7A6FE03A8FFF7EAFD02A8E7
:1068F000FEF7FCF809B0F0BD019D0123D5E84F2F4C
:10690000002A03D1C5E8413F0029F7D1EFD12B730D
:10691000BFF35B8F6B702B1DBFF35B8F53E8006F72
:1069200043E80042002AF9D1BFF35B8F002EDED08E
:106930002046FEF755FF074660B105F10C013046D1
:10694000FFF744FE3046FEF771FD10213046FEF79A
:1069500074F8CCE7314603A8FFF7A0FF2B7B8DF836
:106960001C301020FEF765F80546D0B18760142072
:10697000FEF75FF8044678B18760014603A8FFF789
:1069800068FC059BA268A360069B0592E268E36031
:106990009DF81C3006922374064BEB60064B2C606E
:1069A000AB6003A8FEF742FD002229460348FEF72C
:1069B0001FFFC7E7DF650B00C1690B00D16C0B003F
:1069C000012A70B5044603D10B680360002070BD36
:1069D000022A0CD0032AF9D10468002CF6D02046F4
:1069E000FEF724FD14212046FEF727F8EEE71420D9
:1069F0000E68FEF71EF8054620B13146FFF74EFF40
:106A0000337C2B742560E1E7704710B518210446EC
:106A1000FEF713F8204610BDF0B5037D062B8DB0B0
:106A20000E4600F104074FF0000412D000F10805F3
:106A300015F8011D0A223046FFF751FCAF4204440D
:106A400019D0002CF4D02E213046FFF745FC044429
:106A5000EEE72F236A4639460A208DF80040FEF7FC
:106A60007FFD6846FDF7A2FF33680246DB68694692
:106A700030469847044620460DB0F0BD10B5054B92
:106A80000446112240F8043B002102F01BF9204685
:106A900010BD00BFF8900B000346074A10B543F83D
:106AA000042B01F1100251F8044B43F8044B9142BE
:106AB000F9D10A781A7010BDF8900B00037D042BF1
:106AC00004D14068003818BF01207047062B07D159
:106AD00043683BB983682BB9C3681BB90069F1E708
:106AE000002070470120704710B59DF8084044EA27
:106AF000032343EA024242EA016104234160037531
:106B000010BD000007B5064B0360CB7800938B786F
:106B10004A780978FFF7E8FF03B05DF804FB00BF8F
:106B2000F8900B00417470477047704708B500211A
:106B3000007CFEF71DFE40EAE07008BD08B50121AB
:106B4000007CFEF715FE40EAE07008BD08B5007C49
:106B5000FEF706FE20EAE07008BD08B5007CFEF7EF
:106B6000F7FD20EAE07008BD13B50446007C0191F2
:106B7000FEF7F6FD0028019901DC607C20B1207C45
:106B8000FEF7FEFD20EAE07002B010BD007CFEF7CB
:106B9000FFBD10B514210446FDF74FFF204610BD80
:106BA00010B54FF47A73044608460021C4E9011376
:106BB000044B23600123207463741146FEF7C0FD6B
:106BC000204610BD0C910B0010B514220446002184
:106BD00002F078F8204610BD10B50F4C88B003A81D
:106BE000FFF7F2FF2178BFF35B8F11F001010FD1A6
:106BF00020460191FDF723FF019948B103AA0748F8
:106C0000FFF7CEFF2046FDF71FFF054802F036F8DC
:106C1000024808B010BD00BFF4E60320F8E60320E8
:106C2000296B0B00FEF764BCFEF75ABC7047417439
:106C3000704708B5007CFEF7E3FC20EAE07008BD71
:106C400008B5007CFEF7B4FC20EAE07008BD08B58A
:106C5000007CFEF7BDFC40EAE07008BD08B5007C92
:106C6000FEF7AEFC40EAE07008BD007CFEF7B8BC61
:106C700037B5457C04462DB1207C03B0BDE83040DB
:106C8000FEF78EBC007C0191FEF7BAFC002801994A
:106C9000F2DC284603B030BD10B514210446FDF7E0
:106CA000CCFE204610BD000010B54FF47A730446A8
:106CB000084611460022C4E90123044B2360012346
:106CC00020746374FEF7A4FC204610BD3C910B00B9
:106CD00010B5836804460BB900F032FEC3689847CC
:106CE000A3681BB103222146204698472046102165
:106CF000BDE81040FDF7A1BE7047F8B50646154641
:106D00000C468F18BC4206D0336814F8011B9B68F0
:106D100030469847F6E72846F8BD007C0022FEF78B
:106D20007FBC007C0021FEF783BC007C0021FEF7C5
:106D300087BC007C0021FEF78BBC007C0021FEF7A5
:106D40008FBC10B514210446FDF777FE204610BD18
:106D500038B5044615464FF47A730022C4E901237E
:106D6000094B2174084623602946FEF789FCBF3091
:106D700008D16B69DB0705D56868FEF7F5FDE868A3
:106D8000FEF7F2FD204638BD6C910B0013B5036889
:106D90008DF80710DC6B01224FF0FF330DF1070176
:106DA000A04702B010BD10B40368DC6B4FF0FF3396
:106DB000A4465DF8044B604713B5134602688DF88E
:106DC0000710D46B0DF107010122A04702B010BDDE
:106DD00010B54369B3F88620B3F884309A4204466C
:106DE00008D06369B3F88420511CA3F884101344BD
:106DF000187910BD03681B6998470028F1D14FF03E
:106E0000FF30F6E7704743691868C043C00F70470A
:106E100070470000064B994210B500F10C0405D0F4
:106E2000084600F091FD002808BF0024204610BD50
:106E3000AC900B0010B5AC210446FDF7FEFD2046DA
:106E400010BDAC21FDF7F9BD2DE9F0414FF0000870
:106E500086B01C46C0F8048005460E4617464146DB
:106E6000102202A801F02EFF631C09D04FF47A73A0
:106E7000B4FBF3F203FB1244CDE902285C43049413
:106E8000686910230093006802AB41F2050240F6E6
:106E9000FF71FEF705FC002807DAFEF78DFD036899
:106EA0006B60002006B0BDE8F081686900230068CF
:106EB0003A463146FEF71CFC031EEEDB1846F1E7AE
:106EC00030B587B0044601AD6846FFF71BFE0FCD15
:106ED00004340FC42B68237007B030BD70B54D6902
:106EE000054B04468C3544F8043B06460FCD0FC4D1
:106EF0002B682370304670BDF8900B002DE9F043ED
:106F00009846036893B00D460024DB6A0646174690
:106F1000984728466B46224621460094FEF7B0FA71
:106F20000546002863D1009B002B4BD05B69002BEA
:106F300048D006A8FFF7A2FD009B5C696378022B8E
:106F400004D1211D06A8FFF7BBFF26E00A2B24D1A0
:106F50001122294601A801F0B5FEA368002B38D004
:106F600004F108030DF1040C1834186859686246DE
:106F700003C20833A3429446F7D1062301A90CA803
:106F80008DF81430FFF788FD0DF1340CBCE80F00CC
:106F900007AC0FC4DCF80030237006A8FFF78EFDA5
:106FA00080B1336807ADD3F82090124B0C930FCD0E
:106FB0000DAC0FC42B6823703A4643460CA93046EB
:106FC000C84705460098FEF753FA284613B0BDE8B7
:106FD000F083E368002BC3D14FF6FF70D4F8109014
:106FE000FEF7C6FA8145BBD104F11401AAE7254694
:106FF000E8E700BFF8900B0038B543691A68002A2B
:10700000054610DAB3F88620B3F884309A420AD1E4
:1070100003681B699847044628B92B682846DB6A31
:107020009847204638BD0120FCE710B54369B3F806
:107030008620B3F884309A42044605D06369B3F8D9
:1070400084201344187910BD03681B6998470028F1
:10705000F4D14FF0FF30F6E7F8B543691746B3F8BF
:107060008620B3F884309A4205460E4616D06969E8
:10707000B1F88430B1F88640E41ABC4228BF3C46DF
:10708000043322461944304601F00EFE6A69B2F814
:1070900084302344A2F884302046F8BD03681B697D
:1070A00098470028E3D14FF0FF34F5E74269002309
:1070B000A2F884304269A2F8863070472DE9F04189
:1070C0001F4603680C46DB6A8AB005461646984799
:1070D000237DD5F81480042B0CBF02200A20062241
:1070E0000121FEF715FBC8F800006B691B68002B37
:1070F00008DA2B682846DB6A0024984720460AB045
:10710000BDE8F0812846FFF7D1FFB7B1002303A9FE
:10711000F8B20393ADF81030FEF7FAF90028E8D181
:10712000686906230093006803AB41F20B0240F646
:10713000FF71FEF7B5FA0028DBD11C22002103A85D
:1071400001F0C0FD237D042B1DD14FF407733046A1
:10715000ADF80C30FEF71CFAADF80E006068FEF7D3
:1071600007FA04906B691C22186803A9FEF7A8FAB5
:107170000028BED104340FCC6D698C350FC523684F
:107180002B700124BAE740F61C233046ADF80C30D2
:10719000FEF7FEF905AEADF80E00231D04F114074D
:1071A00018685968324603C20833BB421646F7D105
:1071B000D8E7000030B54269B2F886308BB004469B
:1071C0002BB1B2F884209A4201D1FFF76FFF6169B9
:1071D0000868002818DBB1F886507F2D14D80431D8
:1071E0000823C5F180022944FEF772FA002813DD56
:1071F0006369B3F886200AB9A3F884206369B3F8F9
:1072000086201044A3F886006369B3F88600B3F8BB
:107210008430C01A0BB030BDFEF7CEFB03680B2BD9
:10722000F2D0FEF7C9FB03680B2BEDD0202300251D
:10723000CDE90235FEF7C0FB03680193084B09490D
:10724000009302AA2B463220FEF7B2FA636918684F
:10725000FEF72EFA63694FF0FF321A60D4E700BFE1
:1072600093910B008C910B0010B54369044618688C
:10727000002801DBFEF71CFA63694FF0FF321A6049
:107280006069112200218C3001F01CFD2046BDE810
:107290001040FFF70BBF10B5002304460160C0F893
:1072A00084308830FFF7EAFB204610BD73B5002319
:1072B0004FF47A72C0E901320E4A03610260436101
:1072C0000446AC200191FDF7B4FB051E05F10C0648
:1072D00008D00123C5E90133074B01992B603046E3
:1072E000FFF7D9FF2046C4E90565FFF7DFFE02B0CE
:1072F00070BD00BFC8910B00AC910B0010B54FF0F2
:10730000FF310446FFF7D2FF204610BD10B50446FA
:107310000068002801DBFEF7CBF9204610BD0C30D9
:10732000FFF7F4BF002240681146FEF795BA00222D
:1073300040681146FEF7B0BA002240681146FEF7D9
:10734000BBBA40680022FEF7AFBA4068002281F065
:107350000101FEF799BA002340681A461946FEF764
:107360008BBA002340681A461946FEF77DBA002200
:1073700040681146FEF760BA406800220221FEF71D
:1073800063BA002340681A46FEF74EBA024B042245
:107390005A60024A1A6070470CE7032014920B00EF
:1073A000002340681A46FEF73FBA406800220221D7
:1073B000FEF74ABA002240681146FEF73DBA0022A5
:1073C00040681146FEF748BA002340681A4619463D
:1073D000FEF74ABA002340681A461946FEF74CBA2F
:1073E00040680021FEF770BA40680021FEF774BAC9
:1073F0004068002281F00101FEF746BA4068002291
:10740000FEF752BA002240681146FEF755BA002234
:1074100040681146FEF740BA2DE9F04395B0144696
:107420000D460746FFF72AFB00211C220DA80091FC
:1074300001F048FC40230C9320466B460CAA002127
:10744000FEF71EF8044600284BD102460121686869
:10745000FEF702FA0221804622466868FEF7FCF930
:10746000009E81462146002E3BD0002939D1736809
:10747000022B03D00A2B11D0F669F4E7B8F1000F04
:10748000FAD0716906A8043107ADFFF73BFB0FCDB9
:107490003C1D0FC42B6823704146EDE7B9F1000F86
:1074A000EAD07469102201A801F00CFC06238DF8C3
:1074B000143001AD04F108031834186859682A46DD
:1074C00003C20833A3421546F7D101A906A807ADA8
:1074D000FFF7E2FA0FCD3C1D0FC42B68237049461D
:1074E000CAE70098FDF7C4FF384615B0BDE8F08341
:1074F000024B034A1A6000225A60704714E70320C7
:1075000050920B00704710B514210446FDF795FA10
:10751000204610BD38B51546D0E9032393420446F2
:1075200007D2D21A8068AA4228BF2A46184401F01E
:10753000BBFB22692A44226138BD0EB417B505ABE6
:10754000044653F8042BE1680193036980688B4279
:1075500038BFC91A184428BF0021019BFEF714FA4E
:1075600023691844206103B0BDE8104003B07047A0
:1075700007B503688DF807109B6801220DF107011C
:10758000984703B05DF804FB10B55D210446FFF792
:10759000EFFF01232371204610BD10B57D21044665
:1075A000FFF7E6FF01232371204610BD08B50379DC
:1075B000012B02D0022B04D008BD2C21FFF7D8FFED
:1075C000FAE73A21FAE710B50446FFF7EFFF204645
:1075D0005B21FFF7CDFF00232371204610BD10B5BE
:1075E0000446FFF7E3FF20467B21FFF7C1FF00239E
:1075F0002371204610BD000013B504460191FFF72A
:10760000D5FF2368019ADB68034920469847012388
:107610002046237102B010BDA0910B00F8B50446BE
:1076200057EC106BFFF7C2FF23680549DD68204661
:107630003B463246A847012323712046F8BD00BFD0
:1076400084920B002DE9F0470D4622219046044616
:10765000FFF78EFFDFF8A490A8442F464745BA46AF
:107660003DD017F8016B222E06D05C2E04D0304698
:1076700001F012FB0028F1D12368AAEB05029B68F8
:107680002946204698475C212046FFF771FF0D2EC2
:107690000AD8072E1CD9A6F10803052B18D8DFE855
:1076A00003F00D0F11171315222E01D05C2E0FD1F0
:1076B00031462046FFF75CFF3D46CFE76221F8E701
:1076C0007421F6E76E21F4E76621F2E77221F0E714
:1076D00023683246DB68494620469847ECE7BD42BE
:1076E00005D023687A1B9B682946204698472221AB
:1076F0002046FFF73DFFBDE8F08700BF87920B00F3
:1077000013B50446CDE90021FFF750FF2046DDE91F
:107710000021FFF797FF02232046237102B010BD1E
:1077200013B50446CDE90021FFF740FF2046DDE90F
:107730000021FFF787FF01232046237102B010BD0F
:10774000232813B502D9002002B010BDA0F10B030D
:10775000022B1AD8174C2178BFF35B8F11F001016F
:107760000BD120460191FDF76AF9019928B1124821
:10777000FEF778F92046FDF767F90F4B1878FDF70B
:10778000D7FF0028DFD10120DEE7012809D800F06B
:10779000B1F80021007CFDF76BFF80F00100C0B262
:1077A000D2E709380128EED800F064F8007CFDF734
:1077B0001FFFF2E71CE7032020E70320232838B54A
:1077C00004460D460AD8FF2908D0FFF7B9FF28B1B3
:1077D00029462046BDE83840FDF76ABE38BD38B5B9
:1077E00004460D46FDF76CFEFF2810D0062804D88D
:1077F0004D2323FA00F0C30709D42046FFF7A0FF6A
:1078000028B129462046BDE83840FDF761BE38BDA5
:107810000D2810B504469CBF0E34A4B22046FFF7D5
:107820008FFF50B103212046FDF73AFE032804D113
:107830002046BDE81040FDF763BE002010BD704734
:1078400038B5044614252A46002101F03BFA25806C
:107850004025074925812846258200F06FF8044914
:107860006060284600F06AF8E060204638BD00BF3E
:10787000A8920B0030B50E4D2978BFF35B8F11F045
:10788000010487B011D12846FDF7D9F868B101A8E5
:10789000FFF7D6FF01AA21460648FFF705FA28465A
:1078A000FDF7D2F8044801F0E9F9024807B030BD0D
:1078B00028E703202CE703203F780B0070470000E7
:1078C00038B50A4B03600123044643610849202070
:1078D00000F034F8202560600549A560284600F0D6
:1078E0002DF8C4E90305204638BD00BF180001008B
:1078F000A8920B0030B50E4D2978BFF35B8F11F0C5
:10790000010487B011D12846FDF799F868B168469F
:10791000FFF7D6FF6A4621460648FFF719FA2846C0
:10792000FDF792F8044801F0A9F9024807B030BD0C
:1079300044E7032048E70320BD780B00FDF77BB840
:1079400008B5FEF729F80000014900F0F9B800BFBA
:10795000C4920B007FB500241023CDE902340368E4
:1079600015469E6912686B46CDE90044B0479DF804
:10797000043003F00603062B03BF009B2B6001209D
:10798000204604B070BD0098904214BF012006202C
:107990007047000010B5034B0360044600F0CDF8BB
:1079A000204610BD04930B0010B50446FFF7F2FF0C
:1079B00020460821FDF741F8204610BD2DE9F04191
:1079C0001F46DDE90834DDF818809845064615465F
:1079D00007D1079900F0B4F818B165710020BDE82F
:1079E000F0813946304600F0ABF80028F6D001238C
:1079F000C4F800802571A371F0E738B515461C4620
:107A000000F09EF820B10823E3600623256023716F
:107A100038BD73B505460C4601921E4600F090F83D
:107A200050B9032E08D82368019A5B69294620467D
:107A300002B0BDE87040184702B070BD10B5034BEE
:107A400003600446FFF7A6FF204610BD64930B00B9
:107A500010B50446FFF7F2FF20460C21FCF7EDFFBE
:107A6000204610BDF7B5089F974205460E461446BE
:107A70000AD0A86802680897156A31462246AC46C3
:107A800003B0BDE8F04060471946019300F058F894
:107A9000019B0028EDD0062003B0F0BD2DE9F14F89
:107AA0000D461946DDE90A4BDDE90CA6814617466D
:107AB000984600F045F890B1002D3460377109DB2D
:107AC00061198A450CBF06210121B171002001B066
:107AD000BDE8F08F0235F9D10123B371F6E75445C3
:107AE00006D15946484600F02BF808B17771EDE70A
:107AF000D9F808000368CDE90CA6CDE90A4BDC698A
:107B00003A4643462946A44601B0BDE8F04F6047D7
:107B10002DE9F04107460C4615461E46FFF76DFF5E
:107B200048B9B86803689F692A4633462146BC466F
:107B3000BDE8F0416047BDE8F08170470020704724
:107B4000814208B50ED0406803782A2B0CD04968D2
:107B50000B782A2B08BF0131FCF71EFFB0FA80F02A
:107B6000400908BD0120FCE70020FAE70000000002
:107B7000F8B52DED028B57EC106B55EC114B00F066
:107B8000CBF8634BB0EE408AF0EE608A93F9003098
:107B900001332AD022462B4620462946FCF796FE82
:107BA00018BB32463B4630463946FCF78FFE00286C
:107BB00044D10022002330463946FCF755FED8B1A7
:107BC0000022002320462946FCF74EFE00283DD126
:107BD00045EC104B00F010FF38B12046294600223A
:107BE0000023FCF74BFE00285CD1B0EE480AF0EE13
:107BF000680ABDEC028BF8BDB0EE480AF0EE680AE8
:107C000000F0FAFE58B351EC180B00220023FCF7E9
:107C10002BFE0028E9D047EC106B00F0EDFE0028A9
:107C2000E3D045EC104B00F0E7FE0028DDD0FDF777
:107C3000C3FE22239FED2E8B0360D6E72046294604
:107C400000220023FCF710FE0028CED09FED2A8BE7
:107C5000B0EE480AF0EE680ABDEC028BF8BD47ECC6
:107C6000106B00F0C9FE0028CDD045EC104B00F0A1
:107C7000C3FE0028C7D053EC182B18EE100A194683
:107C8000FCF724FE20BBFDF797FE034622221A6074
:107C90003046394600220023FCF7F0FD48B99FED3D
:107CA000188BA2E7FDF788FE21239FED178B036059
:107CB0009BE745EC104B00F0B3FE224651EC100B55
:107CC0002B46FCF7D1FD0028E9D19FED0F8B8CE707
:107CD000FDF772FE002200232121016010461946A3
:107CE000FCF784FC41EC180B7FE700BFAFF300808A
:107CF0000000000000000000000000000000F03F55
:107D0000000000000000F07F000000000000F0FF15
:107D100078E40320000000002DE9F04F57EC116BD0
:107D20002DED0C8B27F0004A5AEA060287B03DD0B1
:107D300055EC104B724925F00048884510EE102A8A
:107D4000A9462CDC11EE103ABB4636D08A4526DC1B
:107D50006B498A4521D0B9F1000F39DB0021009130
:107D6000002B51D1664B9A4500F0A280654B9A4595
:107D700000F0B080BBF1804F00F0C084624B9B45A7
:107D800042D1B9F1000F3FDB45EC104B07B0BDEC21
:107D90000C8BBDE8F04F00F059BD002BDBD008F193
:107DA000404808F5801858EA020309D19FED500BAE
:107DB00007B0BDEC0C8BBDE8F08F0CB9C245C7DD38
:107DC000524807B0BDEC0C8BBDE8F04F00F020BE70
:107DD0004F498A4500F38580A1F154718A450FDD32
:107DE0004FEA2A51A1F2FF31142940F39B84C1F1DB
:107DF000340123FA01F000FA01F1994200F0ED8418
:107E000000210091002BB1D045EC104B029200F004
:107E1000E9FD029A5ABBB8F1000F04D0394B29F0A2
:107E200040429A4223D1BBF1000F07DA53EC102BEA
:107E300034490020FCF7DAFB41EC100BB9F1000FDC
:107E4000B6DA009B08F1404808F5801858EA0303A9
:107E500040F08D8453EC102B10461946FCF7E4F8E3
:107E600002460B46FCF7C2FB41EC100BA0E7009A60
:107E70004FEAD973013B0493134335D0254B9A4500
:107E80004CDD03F104739A45234B40F3DB839845A3
:107E900040F36083BBF1000F40F3608316A3D3E986
:107EA000002310461946FCF777FA41EC100B7FE7E8
:107EB00008F1404303F5801313433FF477AF164BAB
:107EC000984540F37A83BBF1000FC0F2478347EC3B
:107ED000106B6DE7BBF1000FC0F21A8445EC104B3C
:107EE00066E7022100913BE722462B46B4E700BF3C
:107EF000000000000000F03F9C7500883CE4377EE5
:107F00000000F07F0000F03F0000E03FA0930B0076
:107F1000FFFF3F430000E041FFFFEF3FE44B09EA72
:107F20000303002253B951EC100BE24BFCF734FA77
:107F300041EC100B10EE908A6FF034024FEA285398
:107F4000A3F2FF339A18DC4B0592C8F3130848F0EC
:107F50007F54984544F4401407DDD84B984540F3CE
:107F6000148401320592A4F580149FEDB96B9FED46
:107F7000BA7B53EC162BB0EE47CAF0EE67CA002569
:107F8000B0EE47DAF0EE67DA5BEC10ABA346504692
:107F9000594643EC1A2BFCF747F853EC1A2B804652
:107FA000894650465946FCF741F802460B460020E8
:107FB000C349FCF71BFB41EC1B0B404653EC1B2B4E
:107FC0004946FCF7E9F941EC180B0A460146CDE9B0
:107FD00002120021029164104BEC19AB44F00054E2
:107FE000DDE902AB04F500230020591904460D46D3
:107FF00002460B4650465946FCF7CEF902460B4660
:1080000040464946FCF710F853EC1A2B8046894647
:1080100020462946FCF708F802460B4651EC190B9E
:10802000FCF702F852465B46FCF7B6F902460B46EF
:1080300040464946FBF7F8FF53EC1B2BFCF7ACF925
:1080400053EC182B41EC190B51EC180BFCF7A4F96D
:1080500083A3D3E9002304460D46FCF79DF982A3D0
:10806000D3E90023FBF7E2FF22462B46FCF794F905
:108070007FA3D3E90023FBF7D9FF22462B46FCF769
:108080008BF97DA3D3E90023FBF7D0FF22462B46D3
:10809000FCF782F97AA3D3E90023FBF7C7FF224656
:1080A0002B46FCF779F978A3D3E90023FBF7BEFF51
:1080B0002246804689462B4620462946FCF76CF925
:1080C00002460B4640464946FCF766F952460446CE
:1080D0000D465B4651EC180BFBF7A8FF53EC192B30
:1080E000FCF75AF922462B46FBF7A0FF5246804682
:1080F00089465B4650465946FCF74EF902460B4608
:1081000043EC1A2B6F4B0022FBF790FF42464B4685
:10811000FBF78CFF00240D4622462B46504659465D
:10812000FCF73AF9674B82468B46002220462946E7
:10813000FBF77AFF53EC1A2BFBF776FF02460B4650
:1081400040464946FBF770FF53EC182BFCF724F927
:1081500022462B4604460D4651EC190BFCF71CF940
:1081600002460B4620462946FBF760FF80468946BB
:1081700042464B4650465946FBF758FF44A3D3E9C5
:108180000023002004460D46FCF706F9524641EC58
:10819000190B5B4620462946FBF746FF02460B4675
:1081A00040464946FBF740FF3BA3D3E90023FCF7D9
:1081B000F3F802460B462046294614461D4638A3CE
:1081C000D3E90023FCF7E8F802460B46204629468F
:1081D000FBF72CFF53EC1D2BFBF728FF804605987F
:1081E0008946FCF76FF8424682468B464B4651EC77
:1081F000190BFBF71BFF53EC1C2BFBF717FF524629
:108200005B46FBF713FF52465B46002004460D46D3
:10821000FBF70AFF53EC1C2BFBF706FF53EC192B63
:10822000FBF702FF02460B4640464946FBF7FCFEC1
:10823000009B049A013B134382468B4640F0B68173
:108240009FED197BB0EE478AF0EE678A3CE000BFF5
:10825000000000000000F03F0000000000000000EF
:10826000EF4E454A287ECA3F65DBC9934A86CD3F1B
:1082700001411DA96074D13F4D268F515555D53F01
:10828000FFAB6FDBB66DDB3F033333333333E33F99
:10829000000000E009C7EE3FFD033ADC09C7EE3FEE
:1082A000F5015B14E02F3EBE000000000000F0BFAF
:1082B0000000F07F000040438E98030079B60B0069
:1082C0000000F03F000008400023CDE90067009364
:1082D000DDE90089304642464B463946FBF7A4FEAD
:1082E00022462B46FCF758F832463B4606460F46D8
:1082F00050465946FCF750F802460B463046394680
:10830000FBF794FE42464B4606460F46204629465A
:10831000FCF742F804460D462B46304639462246C5
:10832000FBF784FEC24B9942804689468A4640F359
:10833000188101F13F4303F5E003034340F0078256
:10834000A3A3D3E9002330463946FBF76FFE02466C
:108350000B46404649469046994622462B46FBF737
:1083600063FE02460B4640464946FCF7A5FA002844
:1083700040F0ED81CAF30A534FF48012A3F2FE33AA
:1083800042FA03F35344AB49C3F30A52A2F2FF3259
:1083900041FA02FCC3F3130141F48011C2F114024B
:1083A00041FA02F2002023EA0C01BAF1000F009218
:1083B0000B46024602DA00994942009120462946BE
:1083C000FBF732FE009B1B05029302460B46044658
:1083D0000D4630463946FBF729FE89464FF0000826
:1083E0007DA3D3E9002340464946FBF7D5FF22464B
:1083F0002B4682468B4640464946FBF715FE024611
:108400000B4630463946FBF70FFE75A3D3E9002330
:10841000FBF7C2FF74A3D3E9002304460D46404690
:108420004946FBF7B9FF02460B4620462946FBF7B3
:10843000FDFD06460F4632463B4650465946FBF781
:10844000F5FD52465B4604460D46FBF7EDFD024640
:108450000B4630463946FBF7E7FD22468046894603
:108460002B4620462946FBF797FF61A3D3E900235B
:1084700006460F46FBF790FF5FA3D3E90023FBF707
:10848000D3FD32463B46FBF787FF5DA3D3E90023CC
:10849000FBF7CCFD32463B46FBF77EFF5AA3D3E900
:1084A0000023FBF7C1FD32463B46FBF775FF58A39F
:1084B000D3E90023FBF7BAFD32463B46FBF76CFFDE
:1084C00002460B4620462946FBF7AEFD06460F4600
:1084D00032463B4620462946FBF75EFF02460B46E6
:1084E0003046394616461F4600224FF08043FBF7C0
:1084F0009BFD02460B4630463946FCF777F842466C
:1085000006460F464B4620462946FBF745FF4246A6
:108510004B46FBF78BFD02460B4630463946FBF7D0
:1085200083FD22462B46FBF77FFD02460B460020CB
:108530004149FBF779FD029A0B461344B3F5801FBE
:10854000C0F24381194653EC182BFBF725FF41EC91
:10855000100B2DE4BBF1000FFFF6A0AC9FED2E0B2E
:1085600026E4DFF8DCC021F00043634540F3E780F8
:10857000324B0B4403430AD122462B46FBF754FDF2
:1085800032463B46FCF78EF900283FF4F3AE24A3B5
:10859000D3E9002351EC180BFBF7FEFE20A3D3E92F
:1085A0000023FBF7F9FE41EC100B01E49FED1E7B6D
:1085B000B0EE478AF0EE678A86E6BBF1000FCDDAAF
:1085C00007F1004300EE106A00EE903AFFF7F0BBAF
:1085D000FE822B654715973C00000000432EE63FC6
:1085E000EF39FAFE422EE63F396CA80C615C20BEE2
:1085F000D0A4BE726937663EF16BD2C541BDBB3EA9
:108600002CDE25AF6A56113F93BDBE166CC1663F86
:108610003E5555555555C53F00000000000000006F
:1086200059F3F8C21F6EA501000000000000F03FE2
:10863000FFFF8F40FFFF0F000000F03F00346F3F4F
:10864000FFCB9040984585DB7D4B98453FF722ACAA
:1086500051EC100B7A4B0022FBF7E6FC68A3D3E940
:10866000002304460D46FBF797FE67A3D3E90023DA
:1086700082468B4620462946FBF78EFE714B41EC25
:10868000180B002220462946FBF786FE02460B46C1
:108690005FA1D1E90001FBF7C7FC22462B46FBF79F
:1086A0007BFE02460B4600206749FBF7BDFC2246D5
:1086B000804689462B4620462946FBF76DFE02463A
:1086C0000B4640464946FBF767FE53A3D3E9002318
:1086D000FBF762FE02460B4651EC180BFBF7A4FCBD
:1086E0008046894642464B4650465946FBF79EFC1B
:1086F000002052465B4604460D4691E522462B4635
:1087000020462946FBF748FE41EC100BFFF750BB13
:108710004B49002022462B46FBF768FF41EC100B2B
:10872000FFF746BB002B44D1C1F114014AFA01F016
:1087300000FA01F151455AD00093FFF717BB424AA6
:1087400093425BDCDDE900120291009146E634A31E
:10875000D3E9002351EC180BFBF71EFE30A3D3E93D
:108760000023FBF719FE41EC100BFFF721BB009B28
:10877000012B7FF41DAB10EE901A10EE102A01F1C0
:10878000004343EC102BFFF713BB9FED277BB0EEAC
:1087900047CAF0EE67CA9FED267BB0EE47DAF0EEEF
:1087A00067DA9FED257B4FF4802553EC172BFFF7FD
:1087B000EBBB45EC104B009200F014F9009A002A34
:1087C0007FF492AB0092FFF726BB41EC100B0098B0
:1087D00000F0C2F951EC100BB5E600F00100C0F159
:1087E00002010091002B3FF4C1AAFFF70DBB00F07E
:1087F0000100C0F102030093FFF7B8BA1B15BBE5F7
:10880000000000604715F73F44DF5DF80BAE543EB3
:10881000555555555555D53FFE822B654715F73FA4
:108820009C7500883CE4377E0000004003B8E23FBE
:1088300006D0CF43EBFD4C3E000000000000F83FA7
:108840000000F03F0000D03F0000E03F2DE9F04184
:10885000634A55EC104BAA4300F09F80002D10EEA8
:1088600010CA2B4654DD291563D0C3F31303A1F2BC
:10887000FF37C90743F4801304D45B0003EBDC73B8
:108880004FEA4C0C4FEADC72002602EB43037F10E8
:108890004FEA4C0C4FF0160E34464FF40012A1185C
:1088A000994202DC5B1A8C1816445B00BEF1010E83
:1088B00003EBDC734FEA52024FEA4C0CEFD17546E2
:1088C00020204FF000420AE044D04FEADC7101382A
:1088D00001EB43034FEA4C0C4FEA520243D0A34250
:1088E00002EB0E01F0DD002901EB020E0ADBA046CF
:1088F0001B1B614588BF03F1FF33ACEB010C154432
:108900004446E2E7BEF1000FF1DB04F10108EFE7B6
:1089100025F00042224338D0002D4ED129464FEA9F
:10892000DC22153913464FEA4C5C002AF7D0D602F8
:1089300050D400205B00DD02044600F10100F9D5AF
:108940001A4663460CFA00FCC0F12000C340091B24
:1089500013438AE76145B8D8002901EB020ED1DB49
:1089600098460023C9E753EA0C0310D16808711038
:10897000F30701F17F5101F5001148BF40F00040BD
:1089800001EB0753024643EC102BBDE8F0816A1C53
:1089900016BF681C01364008E9E710EE102A10EEF9
:1089A000100A2B462946FBF7F7FC22462B46FBF71D
:1089B0003DFB41EC100BBDE8F08110EE102A204683
:1089C0002946FBF731FB02460B46FBF70FFE41EC55
:1089D000100BDAE7634620204FF0FF34B6E700BF04
:1089E0000000F07F51EC100B10EE102A21F0004334
:1089F00043EC102B704700BF82B08DED000B019847
:108A000040F0004000F58010C00F02B0704700BF7A
:108A10009FED010B704700BF000000000000F87FD1
:108A2000F0B553EC102BC3F30A5CACF2FF31132901
:108A300010EE100A83B01C464FEAD37E3ADC0029C0
:108A400030DB424D45FA01FC03EA0C0515432DD0FD
:108A500003EA5C0318434FEA5C0C0CD024EA0C0CCC
:108A60004FF48024132944FA01F10CBF4FF0004069
:108A700000204CEA0104364901EBCE0E2346DEE924
:108A80000045024629462046FBF7D0FACDE9000111
:108A9000DDE9000122462B46FBF7C6FA41EC100B3C
:108AA00003B0F0BD23F00041114324D143EC102B5F
:108AB00003B0F0BD332908DDB1F5806FF6D119465A
:108AC000FBF7B4FA41EC100BF2E7ACF2134C4FF0A9
:108AD000FF3121FA0CF10A42E8D010EA51024FEAC4
:108AE0005103C8D020EA03034FF0804040FA0CFC49
:108AF00043EA0C00BFE7C3F313031843144A43428D
:108B0000034302EBCE0E1B0B620C03F40023520452
:108B100043EA02073B46DEE9006710EE102A3046C2
:108B20003946FBF783FACDE9000132463B46DDE9E1
:108B30000001FBF779FA04F0004421F000410246FD
:108B400041EA040343EC102B03B0F0BDFFFF0F001C
:108B5000A8930B000000000038B553EC102BC3F3B2
:108B60000A5104469C4689BB10EE101A23F0004CB3
:108B70005CEA010129D0194600223D4B3D4D10EE23
:108B8000100AFBF709FCAC4202460B4616DB8C468A
:108B9000C1F30A513639214440F2FE70814221DC92
:108BA000002947DC11F1350F34DA4CF250318C4298
:108BB00018DC002B26A1D1E9000144DB24A3D3E972
:108BC0000023FBF7E9FB41EC100B38BD40F2FF70CE
:108BD0008142E0D110EE100A1946FBF727FA41EC6A
:108BE000100B38BD002B1CA1D1E9000107DB1AA333
:108BF000D3E90023FBF7D0FB41EC100B38BD18A1E3
:108C0000D1E9000114A3D3E90023FBF7C5FB41EC34
:108C1000100BF3E72CF0FF4C2CF4E00C36314CEA4F
:108C20000153104619460022134BFBF7B5FB41ECEC
:108C3000100B38BD2CF0FF4C2CF4E00C4CEA015327
:108C400043EC102B38BD08A1D1E90001B6E700BF05
:108C500059F3F8C21F6EA5019C7500883CE4377E6D
:108C60009C7500883CE437FE59F3F8C21F6EA5815D
:108C700000005043B03CFFFF0000903C0023014641
:108C80001A46184600F0FEB80A22002100F0F0B89B
:108C90000A22002100F0ECB8024B1844407800F0A2
:108CA000970070474C940B000A44914200F1FF3347
:108CB00000D1704710B511F8014B03F8014F9142F4
:108CC000F9D110BD02440346934200D1704703F826
:108CD000011BF9E738B5104B1D68AB6B0446B3B9FF
:108CE0001820FCF739FE0246A86320B90B4B0C484C
:108CF0004221FCF769FE0B490B4BC0E900130B4BFB
:108D000083600B23838100210120C2E90401AB6B46
:108D100000221C615A6138BD7CE40320B8930B002B
:108D2000CF930B000E33CDAB34126DE6ECDE0500B5
:108D3000024B0146186800F003B800BF7CE4032032
:108D400037B5044608460D46FBF730FE421C114677
:108D500020460192FCF728FE044618B1019A2946E4
:108D6000FFF7A2FF204603B030BD0000012B2DE924
:108D7000F04701D0242B06D9FCF71EFE1623036012
:108D80000020BDE8F087DFF8E4C00D462E4615F858
:108D9000014B14F80C7017F00807F7D12D2C32D1C5
:108DA0002C780127B51C002B5BD0102B09D1302C5F
:108DB00007D12C7804F0DF04582C4DD16C781023A7
:108DC000023507F1004808F1FF384FF0000CB8FBFE
:108DD000F3F9664603FB198AA4F1300EBEF1090FC0
:108DE00016D87446A34224DDBCF1000F1EDBB1454A
:108DF0001CD301D1A24519DB06FB03464FF0010C41
:108E000015F8014BE8E72B2C04BF2C78B51CCAE7FA
:108E1000A4F1410EBEF1190F01D8373CE2E7A4F1ED
:108E2000610EBEF1190F04D8573CDBE74FF0FF3C51
:108E3000E6E7BCF1000F05DA22230360464642B99B
:108E400030469EE707B17642002AF9D0BCF1000F08
:108E500000D0691E1160F3E73024002BB1D1082344
:108E6000AFE7302CA5D00A23ABE700BF4D940B0031
:108E700013460A46014602480068FFF777BF00BF65
:108E80007CE403202DE9F843DFF8B8800646D8F8E3
:108E900000001F460D46914600F056F8254B1C6811
:108EA00034B9254C1C60254B13B11B68C4F88830BD
:108EB00063681F2B07DDD8F8000000F047F84FF07B
:108EC000FF30BDE8F8834EB3D4F8880088B91C4B56
:108ED00023B9D8F8000000F038F8F0E74FF48470B8
:108EE000FCF73AFD0028F4D00023C0E94033C4F871
:108EF0008800636840F8239001229A4000EB8301C8
:108F0000D0F800311343C0F80031022EC1F8807050
:108F100002BFD0F804311343C0F804316368D8F8B5
:108F200000005A1C0233626044F8235000F00EF82F
:108F30000020C6E7E8E703205CE70320000000000C
:108F400059590B00E0E40320704770477047000058
:108F5000BD490B00F9490B00214A0B00254A0B00C3
:108F60000000000075706C6F61645F646174610083
:108F70004465766963650064657669636500535985
:108F80005330315F310074656D705F30310074654E
:108F90006D705F30320068756D5F30310068756DDF
:108FA0005F303200687967726F5F3031006C7578BE
:108FB0005F30310069727269676174696F6E2D7319
:108FC000797374656D00616C6976650075706461B4
:108FD00074655F7754696D65004173736572746978
:108FE0006F6E4661696C757265202A705F70696E7C
:108FF000203C20283332202B20313629000000006D
:109000000000000000000000475A0B003D5A0B0012
:10901000335A0B00295A0B001D5A0B00115A0B0032
:10902000E1730B00E9730B00055A0B00FD590B00AF
:10903000F3590B00E9590B0019740B0000000000F4
:1090400000000000D5600B00F9600B00955B0B0081
:10905000BD5C0B004D5B0B00AD5B0B00CB5B0B00F5
:10906000E55B0B00095C0B00A15C0B007B5F0B0058
:10907000415D0B00995E0B00355B0B0065600B00DA
:10908000215E0B00555B0B0093600B00E75C0B004F
:10909000435B0B00795D0B00495B0B00E75B0B004A
:1090A000F0FFFFFF00000000015C0B00000000006B
:1090B000000000006170700025592D256D2D25647C
:1090C0005425483A254D3A2553257A006173637437
:1090D000696D650000000000000000008D640B0059
:1090E00093640B00D1640B00A1640B008F640B0030
:1090F0000000000000000000196A0B00096A0B0064
:109100000B6A0B0000000000000000002B6B0B003E
:10911000936B0B00696B0B0089620B005B6B0B00A0
:109120002D6B0B003D6B0B008D6B0B004D6B0B0023
:10913000256B0B0000000000000000002D6C0B00F0
:10914000996C0B00716C0B0089620B00416C0B0079
:109150005D6C0B004F6C0B006B6C0B002F6C0B00ED
:10916000336C0B000000000000000000F96C0B00E5
:10917000436D0B001B6D0B00FB6C0B00236D0B0094
:109180002B6D0B00336D0B003B6D0B007769726923
:109190006E670072656376206572726F72203D2083
:1091A000256400000000000000000000116E0B00AC
:1091B000356E0B001F730B00436E0B00156E0B001A
:1091C0000000000000000000A9530B00DD530B005D
:1091D0008D6D0B00A76D0B00B5710B00D16D0B00F1
:1091E0002B700B00056E0B00BD700B00FD6E0B00AD
:1091F00059700B0069720B00F96F0B00076E0B00C2
:10920000B96D0B00496E0B00DD6E0B000000000015
:109210000000000083730B0079730B006F730B0069
:1092200025730B0063730B0057730B00E1730B0086
:10923000E9730B004B730B0043730B0039730B0086
:109240002F730B0019740B000000000000000000D9
:10925000A1730B00AB730B00B5730B00BF730B0056
:10926000C9730B00D5730B00E1730B00E9730B009E
:10927000F1730B00FD730B0005740B000F740B00F2
:1092800019740B0025670075253034780000000044
:10929000000000000000000005750B0007750B00C2
:1092A00015750B003B750B0000537431395F53701B
:1092B0005F6D616B655F7368617265645F74616740
:1092C0000000000004930B00A9920B0064930B00B4
:1092D000D8920B0088930B004E31305F5F63787833
:1092E000616269763131375F5F636C6173735F749C
:1092F0007970655F696E666F4500000000000000D0
:10930000CC920B0095790B00A9790B003D7B0B00EB
:109310003D7B0B00137A0B0055790B00FB790B009A
:10932000BD790B0087790B0064930B0034930B001D
:10933000CC920B004E31305F5F6378786162697662
:109340003132305F5F73695F636C6173735F74792F
:1093500070655F696E666F450000000000000000E8
:1093600028930B003D7A0B00517A0B003D7B0B00DC
:109370003D7B0B00137A0B0055790B00117B0B0022
:109380009D7A0B00657A0B0004930B0090930B0001
:10939000537439747970655F696E666F0000000000
:1093A000000000000000000000000000000030434A
:1093B00000000000000030C35245454E54206D614E
:1093C0006C6C6F6320737563636565646564002FFF
:1093D0006D6E742F776F726B73706163652F776F2B
:1093E000726B73706163652F4743432D31302D706D
:1093F0006970656C696E652F6A656E6B696E732D39
:109400004743432D31302D706970656C696E652D51
:1094100034385F32303230313132345F31363036C9
:109420003138303634312F7372632F6E65776C6943
:10943000622F6E65776C69622F6C6962632F73743B
:10944000646C69622F72616E642E630000202020BC
:1094500020202020202028282828282020202020E4
:1094600020202020202020202020202020881010B4
:109470001010101010101010101010101004040410
:1094800004040404040404101010101010104141CE
:1094900041414141010101010101010101010101BC
:1094A00001010101010101011010101010104242D0
:1094B000424242420202020202020202020202028C
:1094C000020202020202020210101010200000002C
:1094D000000000000000000000000000000000008C
:1094E000000000000000000000000000000000007C
:1094F000000000000000000000000000000000006C
:10950000000000000000000000000000000000005B
:10951000000000000000000000000000000000004B
:10952000000000000000000000000000000000003B
:10953000000000000000000000000000000000002B
:10954000000000000000000000000000000000001B
:10955000D54D0B009D530B00F1530B0021540B0014
:1095600041540B0065540B00515A0B00795A0B0003
:1095700079620B001D630B002D630B0049630B0028
:089580008D730B00F1740B0068
:10958800040000001400000003000000474E5500CE
:109598001AEE642ED2575B70F73AB8842635F94E26
:0495A8009A85056932
:1095AC00D0070000CC900B00FF00000080E40320EB
:1095BC00000000000000000000000000000000009F
:1095CC00000000000000000000000000000000008F
:1095DC00000000000000000000000000000000007F
:1095EC00000000000000000000000000000000006F
:1095FC00000000000000000000000000000000005F
:10960C00000000000000000000000000000000004E
:04961C00ECE7032054
:049620000000000046
:10962A0000000102030405060708090A0B0C0D0EC7
:10963A000F101112131415161718191A1B1C1D1EB8
:04964A001F202800B5
:04964E007856341204
:04000003B0004020E9
:00000001FF
